:020000042000DA
:100000000000012099020020090300200B030020BA
:100010000D0300200F03002011030020000000004A
:10002000000000000000000000000000130300209A
:100030001503002000000000170300201903002012
:100040001B0300201D0300201F03002021030020AC
:10005000230300202503002027030020290300207C
:100060002B0300202D030020590A0020890A0020BC
:10007000330300203503002037030020390300201C
:100080003B0300203D0300203F03002041030020EC
:1000900043030020450300204703002049030020BC
:1000A0004B030020000000000000000000000000E2
:1000B0000000000000000000000000004D030020D0
:1000C0004F0300205103002053030020550300205C
:1000D00057030020590300205B0300205D0300202C
:1000E0005F030020610300206303002065030020FC
:1000F00067030020690300206B0300206D030020CC
:100100006F0300207103002073030020750300209B
:1001100077030020790300207B0300207D0300206B
:100120007F0300208103002083030020850300203B
:1001300087030020890300208B0300208D0300200B
:100140008F030020910300209303002095030020DB
:1001500097030020990300209B0300209D030020AB
:100160009F030020A1030020A3030020A50300207B
:10017000A7030020A9030020AB030020AD0300204B
:10018000AF030020B1030020B3030020B50300201B
:10019000B7030020B9030020BB030020BD030020EB
:1001A000BF030020C1030020C3030020C5030020BB
:1001B000C7030020C9030020CB030020CD0300208B
:1001C000CF030020D1030020D3030020D50300205B
:1001D000D7030020D9030020DB030020DD0300202B
:1001E000DF030020E1030020E3030020E5030020FB
:1001F000E7030020E9030020EB030020ED030020CB
:10020000EF030020F1030020F3030020F50300209A
:10021000F7030020F9030020FB030020FD0300206A
:10022000FF03002001040020030400200504002037
:1002300007040020090400200B0400200D04002006
:100240000F040020110400201304002015040020D6
:1002500017040020190400201B0400201D040020A6
:100260001F04002021040020230400202504002076
:1002700027040020290400202B0400202D04002046
:100280002F04002031040020330400203504002016
:100290003704002039040020684880476848002857
:1002A0000BD168486849694A884206D091421CBF10
:1002B00050F8043B41F8043BF8D165486549664A6B
:1002C000884206D091421CBF50F8043B41F8043BE1
:1002D000F8D162486249634A914218BF41F8040B61
:1002E000FAD1000000000000000000000000000043
:1002F000DFF874010FF2030E00474FF000004FF0DB
:100300000001DFF868F1FEE7FEE7FEE7FEE7FEE743
:10031000FEE7FEE7FEE7FEE7FEE7FEE7FEE7FEE7B5
:10032000FEE7FEE7FEE7FEE7FEE7FEE7FEE7FEE7A5
:10033000FEE7FEE7FEE7FEE7FEE7FEE7FEE7FEE795
:10034000FEE7FEE7FEE7FEE7FEE7FEE7FEE7FEE785
:10035000FEE7FEE7FEE7FEE7FEE7FEE7FEE7FEE775
:10036000FEE7FEE7FEE7FEE7FEE7FEE7FEE7FEE765
:10037000FEE7FEE7FEE7FEE7FEE7FEE7FEE7FEE755
:10038000FEE7FEE7FEE7FEE7FEE7FEE7FEE7FEE745
:10039000FEE7FEE7FEE7FEE7FEE7FEE7FEE7FEE735
:1003A000FEE7FEE7FEE7FEE7FEE7FEE7FEE7FEE725
:1003B000FEE7FEE7FEE7FEE7FEE7FEE7FEE7FEE715
:1003C000FEE7FEE7FEE7FEE7FEE7FEE7FEE7FEE705
:1003D000FEE7FEE7FEE7FEE7FEE7FEE7FEE7FEE7F5
:1003E000FEE7FEE7FEE7FEE7FEE7FEE7FEE7FEE7E5
:1003F000FEE7FEE7FEE7FEE7FEE7FEE7FEE7FEE7D5
:10040000FEE7FEE7FEE7FEE7FEE7FEE7FEE7FEE7C4
:10041000FEE7FEE7FEE7FEE7FEE7FEE7FEE7FEE7B4
:10042000FEE7FEE7FEE7FEE7FEE7FEE7FEE7FEE7A4
:10043000FEE7FEE7FEE7FEE7FEE70000090C00200E
:1004400000000000000000200000002000740020D8
:1004500000740020007400202079002000000000BB
:1004600020790020B87900203D0D00209907002058
:1004700047F62013C2F200031A780AB90120187057
:10048000704700BF47F20040C2F2000008B50368A1
:100490002BB140F20003C0F2000303B1984708BD3E
:1004A00080B483B000AF78607B684FEA1363DBB23F
:1004B00003F00103184607F10C07BD4680BC7047E6
:1004C00080B483B000AF78607B684FEA5363DBB2DF
:1004D00003F00103184607F10C07BD4680BC7047C6
:1004E00080B483B000AF78607B684FEA9363DBB27F
:1004F00003F00103184607F10C07BD4680BC7047A6
:1005000080B483B000AF78607B684FEAD363DBB21E
:1005100003F00103184607F10C07BD4680BC704785
:1005200080B483B000AF78607B684FEA1373DBB2AE
:1005300003F00103184607F10C07BD4680BC704765
:1005400080B483B000AF78607B684FEA9353DBB22E
:1005500003F00103184607F10C07BD4680BC704745
:1005600080B483B000AF78607B684FEA5353DBB24E
:1005700003F00103184607F10C07BD4680BC704725
:1005800080B483B000AF78607B684FEA1353DBB26E
:1005900003F00103184607F10C07BD4680BC704705
:1005A00080B483B000AF78607B684FEAD343DBB29E
:1005B00003F00103184607F10C07BD4680BC7047E5
:1005C00080B483B000AF78607B684FEA9343DBB2BE
:1005D00003F00103184607F10C07BD4680BC7047C5
:1005E00080B483B000AF78607B684FEA5343DBB2DE
:1005F00003F00103184607F10C07BD4680BC7047A5
:1006000080B483B000AF78607B684FEA1343DBB2FD
:1006100003F00103184607F10C07BD4680BC704784
:1006200080B483B000AF78607B684FEA1323DBB2FD
:10063000184607F10C07BD4680BC704780B483B0F4
:1006400000AF78607B68DBB2184607F10C07BD4647
:1006500080BC704780B582B000AF78607868FFF7E3
:10066000DFFF034647F2B000C2F20000194600F077
:100670008DFB7868FFF7E2FF034647F2CC00C2F239
:100680000000194600F082FB7868FFF709FF034677
:1006900047F2E800C2F20000194600F077FB7868E4
:1006A000FFF70EFF034647F2F000C2F200001946C2
:1006B00000F06CFB7868FFF713FF034647F2F80081
:1006C000C2F20000194600F061FB7868FFF718FFDE
:1006D000034647F20010C2F20000194600F056FB34
:1006E0007868FFF71DFF034647F20810C2F20000CA
:1006F000194600F04BFB7868FFF722FF034647F2EC
:100700001410C2F20000194600F040FB7868FFF7B1
:1007100027FF034647F21C10C2F20000194600F002
:1007200035FB7868FFF72CFF034647F22410C2F22E
:100730000000194600F02AFB7868FFF731FF0346F6
:1007400047F22C10C2F20000194600F01FFB786837
:10075000FFF736FF034647F23810C2F20000194691
:1007600000F014FB7868FFF73BFF034647F24410A4
:10077000C2F20000194600F009FB7868FFF740FF5D
:10078000034647F25410C2F20000194600F0FEFA88
:1007900007F10807BD4680BD80B582B000AF40F2CA
:1007A0000003C4F205033B603B681B687B6078680C
:1007B000FFF750FFF8E700BF4FF0FF30704700BF72
:1007C000FEE700BF4FF400534B604FF0000070474E
:1007D0004FF00100704700BF4FF00000704700BFAE
:1007E0004FF00000704700BF38B515461C4647F66D
:1007F0002413C2F200031B6883B947F68810C2F2C3
:1008000000004FF461414FF0030200F055F947F644
:100810002413C2F200034FF001021A6047F6881059
:10082000C2F200002946224600F034F8204638BDC6
:1008300008B547F62813C2F200031B6843B947F610
:100840002813C2F2000347F6B812C2F200021A607F
:1008500047F62813C2F200031A68EFF30883104426
:1008600083420FD24FF000004FF0010147F26412B3
:10087000C2F200024FF01903FFF7B6FF4FF001007C
:10088000FFF79EFF47F62813C2F2000318601046D8
:1008900008BD00BF2DE9F00547F68813C2F200033A
:1008A000984206D047F66013C2F20003984200D087
:1008B00000BE01B900BE02B900BE47F68813C2F2FD
:1008C0000003984205D047F66013C2F20003984235
:1008D00033D1131E18BF012300290CBF002303F0DE
:1008E0000103002B29D04FF00007B8464FF0100A43
:1008F00003681B7D90F80AC043EA0C0C80F80AC01C
:1009000013F0200F17D00F2A04D95646BC46434691
:100910000F4404E00AB943460BE01646F6E70468C4
:10092000FD5C25700CF1010C03F101039E42F6D829
:100930006746C3EB0202002ADAD1BDE8F005704732
:1009400008B547F68813C2F20003984207D047F66D
:100950006013C2F20003984201D000BE08BD0368D4
:100960001B7A03F00F030C2B20D8DFE803F0071FDE
:100970000D1F131F191F1F1F1F1F1300436A0BB9E1
:1009800000BE08BD984708BD036A0BB900BE08BD8C
:10099000984708BDC3690BB900BE08BD984708BD9C
:1009A00083690BB900BE08BD984708BD00BE08BDED
:1009B00010B447F68813C2F20003984206D047F6F7
:1009C0006013C2F20003984200D000BEC26802B9B0
:1009D00000BE016901B900BE47F68813C2F20003E8
:1009E000984205D047F66013C2F20003984230D116
:1009F000002A2ED000292CD003681B7D827A43EA7E
:100A00000202827213F0200F1AD002694369C3EB0D
:100A100002030F2B04D94FF0100C4FF0000302E03B
:100A200073B19C46F9E70268C4684169615C117062
:100A3000426902F10102426103F101036345F2D30D
:100A4000426903699A4201BF002303614268C2F808
:100A5000843010BC704700BF684620F007018D4607
:100A600001B547F68810C2F20000FFF769FF4EF2A9
:100A70000013CEF200034FF48062C3F88021BDE87A
:100A800001408546704700BF684620F007018D464B
:100A900001B547F66010C2F20000FFF751FF4EF2B9
:100AA0000013CEF200034FF40062C3F88021BDE8CA
:100AB00001408546704700BF70B504460D46164696
:100AC00047F68813C2F20003984206D047F6601337
:100AD000C2F20003984200D000BE05B900BE00F08B
:100AE00095F847F68813C2F200039C4226D147F6D8
:100AF0008813C2F200034FF080421A604FF0844224
:100B00005A604FF00A021A8147F20C43C2F2000306
:100B1000186842F20003CEF204031A6B42F080021E
:100B20001A634EF20012CEF200024FF48061C2F856
:100B300080111A6B22F080021A6325E040F2000354
:100B4000C4F20103236040F20003C4F22023636077
:100B50004FF00B03238147F21043C2F200031868E1
:100B600042F20003CEF204031A6B42F480721A635D
:100B70004EF20012CEF200024FF40061C2F8801172
:100B80001A6B22F480721A6323684FF000021A7104
:100B900015B94FF001050FE0B0FBF5F515F0080FA2
:100BA0004FEA151518BF0135B5F5803F38BFADB216
:100BB00002D300BE4FF0010563684FF00102C3F895
:100BC0009C2123684FEA15221A712368EDB21D702B
:100BD00062684FF00003C2F89C31226816732268E5
:100BE0004FF00E0111726268C2F810322361E360A7
:100BF0006361E36140F6B112C2F200022262A361B6
:100C00006362A37270BD00BF704700BF30B484B090
:100C100047F28013C2F20003EC460FCB8CE80F00C2
:100C200042F20003CEF204039A6C02F00C0204A913
:100C30000A4452F8105C9A6CC2F3011201EB820272
:100C400052F8104C9A6CC2F3811201EB820252F8F6
:100C5000100CD96CDB6CC1F3042101F1010113F418
:100C6000005F18BF490040F23023C6F208031A683B
:100C700022F0704241F2CF13C0F2A1539A4205D143
:100C80004EF62C73C6F201031B6828E040F61C03E5
:100C9000C6F208031A6844F24133C4F654439A4238
:100CA0001ED140F64003C6F208031A6822F07F42C4
:100CB00040F20033C0F201039A4211D9B2F5003F6D
:100CC00005D241F22C63C6F208031B6807E0B2F5B7
:100CD000403F05D241F6AC63C6F208031B6823B956
:100CE00000BE47F64003C0F27D1347F21442C2F241
:100CF0000002136047F20C42C2F20002B3FBF5F5AA
:100D0000156047F21042C2F20002B3FBF4F4146023
:100D100047F20442C2F20002B3FBF0F0106047F267
:100D20000842C2F20002B3FBF1F1116047F218422F
:100D3000C2F20002136004B030BC704770B547F2D5
:100D4000F03647F2F035C2F20006C2F20005761B1B
:100D5000B61006D0002455F8243001349847A64236
:100D6000F9D847F2F03547F2F436C2F20005C2F284
:100D70000006761B06F030FBB61006D0002455F8AE
:100D8000243001349847A642F9D870BD0FB447F219
:100D90001C43C2F2000310B51C6882B024B1A369E1
:100DA00013B9204602F094FE204605AC049A23466F
:100DB0008168019400F02AF802B0BDE8104004B048
:100DC000704700BF0EB410B5044683B018B18369F4
:100DD0000BB902F07DFE204606AC059A23468168D9
:100DE000019400F013F803B0BDE8104003B0704761
:100DF000936810B5144613B95360184610BD02F03D
:100E0000CBFF00236360A36010BD00BF2DE9F04F4E
:100E1000ADF5AE6D83B00E4615469A46814603F099
:100E2000ABF900681D90B9F1000F04D0D9F8183063
:100E3000002B00F05A8147F20C23C2F200039E42BD
:100E400008BFD9F8046010D047F22C23C2F2000387
:100E50009E4208BFD9F8086007D047F24C23C2F27F
:100E600000039E4208BFD9F80C60B6F80CC01FFA08
:100E70008CF313F4005F09D14CF4005C726EA6F899
:100E80000CC01FFA8CF322F40052726613F0080FA4
:100E900001F001833269002A01F0FD8203F01A0398
:100EA0000A2B00F0E080002212921A9200231C927A
:100EB0000DF59C641192043419920DF5A4621B93F4
:100EC00004320DF590632832033318920793002300
:100ED000CDF84C45CDF85035CDF854352B781A1E49
:100EE00018BF0122252B0CBF002202F0010232B3F1
:100EF0002F4617F8013F1A1E18BF0122252B0CBFE1
:100F0000002202F00102002AF3D1B7EB050808BF66
:100F10003D4614D0C4F80480DDF85035DDF8542582
:100F200001332560072B4244CDF85035CDF85425C8
:100F300078DC083411983D46404411903B78002BF2
:100F40007CD06B1C4FF0FF372B204FF0200C002182
:100F50004FF000020F918DF87725CDF82CA06A781C
:100F60000A915D1CA2F12003582B00F28682DFE873
:100F700013F0980284028402A40284028402840290
:100F8000840284028402AD02BA028402C102CA024F
:100F90008402E702F002F002F002F002F002F00236
:100FA000F002F002F00284028402840284028402CD
:100FB00084028402840284028402040326038402DD
:100FC000260384028402840284026A038402840267
:100FD0008104840284028402840284021404840250
:100FE00084022F0484028402840284028402840224
:100FF00084028402840284024F04650426032603CB
:101000002603730365048402840279038402850342
:101010009603AD030A048402CC038402F403840221
:101020008402C0000DF5A862484631460C32FFF735
:10103000DFFE58B90DF59C6404347BE7DDF85435C8
:10104000002B41F092810023CDF85035B38913F085
:10105000400F02D04FF0FF30119011985FB00DF5A6
:10106000806DBDE8F08FB6F90E30002BFFF61BAF98
:10107000376A2CF0020CD6F828E00DF58E64ADF836
:1010800088C40C34B6F80EC02A465346484621465A
:101090001FADCDF89C740027CDF88C54CDF87C544E
:1010A0004FF48065CDF8A4E4ADF88AC4CDF890542F
:1010B000CDF89474CDF88454FFF7A8FE0028119061
:1010C00009DB2146484602F093FB1199B84218BF4C
:1010D0004FF0FF311191BDF8883413F0400FBCD0B0
:1010E000B38943F04003B381B7E7484602F0F0FC10
:1010F000A1E60A9847F2DC1CC2F2000C169210F02E
:10110000200FCDF864C000F06E830B99CB1D23F047
:10111000070303F108020B92D3E900AB5AEA0B0272
:101120000A9B0CBF00220122134240F06B8602236F
:101130004FF000018DF87715002FA2BFDDF828C011
:101140002CF0800CCDF828C0002F18BF42F001020F
:10115000002A00F01E84012B00F0DE85022B00F037
:10116000C185189913914FEADA084FEADB0C48EA77
:101170004B780AF00700E346C24630305AEA0B02C9
:1011800001F8010DEFD1DDF828C013911CF0010F1B
:1011900040F08C861898401A10909DF87735109A78
:1011A0001797BA42B8BF3A460C9213B10C9A013263
:1011B0000C920A9B0A9813F0020315931EBFDDF8E8
:1011C00030C00CF1020CCDF830C010F08400149047
:1011D0004DD10F990C9A8F1A002F48DD102F47F22E
:1011E0009818D8BFC2F2000830DDC2F200080DF531
:1011F000A86B43464FF0100AA8460BF10C0B1D4696
:1012000002E0103F102F1EDDC4F804A0DDF85035B9
:10121000DDF85425013325601032072BCDF8542515
:1012200004F10804CDF85035EBDD0DF59C6448461B
:1012300031465A460434FFF7DBFD00287FF406AF41
:10124000103F102FE0DC2B46454698466760DDF8DE
:101250005035C4F800805A1CDDF85435CDF85025BF
:10126000DB19072ACDF8543500F38A8508349DF838
:1012700077359BB101236360DDF850350DF5AE6223
:1012800007322260DDF854250133CDF850350132A4
:10129000072BCDF8542500F3B6840834159B9BB179
:1012A00002236360DDF850350DF5AE620432226032
:1012B000DDF854250133CDF850350232072BCDF837
:1012C000542500F3AF840834DDF850C0BCF1800F22
:1012D00000F07683179B109A9F1A002F43DD102F82
:1012E000DFF88C8B2EDD43460DF5A86BA8464FF03A
:1012F000100A0BF10C0B1D4602E0103F102F1EDDF3
:10130000C4F804A0DDF85035DDF85425013325601C
:101310001032072BCDF8542504F10804CDF85035D0
:10132000EBDD0DF59C64484631465A460434FFF720
:101330005FFD00287FF48AAE103F102FE0DC2B46C3
:10134000454698466760DDF85035DDF85425013391
:10135000C4F80080D219072BCDF85425CDF85035AC
:1013600000F342840834DDF828C01CF4807F40F08C
:101370009D82109813996060DDF85035DDF8542592
:10138000013321601218072BCDF85035D8BF04F176
:101390000803CDF8542500F39B830A9911F0040F3C
:1013A00055D00F9ADDF830C0CCEB0207002F4EDD90
:1013B000102F47F29818D8BFC2F200082EDDC2F2F3
:1013C00000080DF5A86A42461024A8460AF10C0A46
:1013D000154602E0103F102F1DDD5C60DDF8502542
:1013E000DDF8541501321D601031072ACDF854156F
:1013F00003F10803CDF85025ECDD4846314652464E
:10140000FFF7F6FC0DF59C63043300287FF41EAE55
:10141000103F102FE1DC2A46454690465F60DDF81C
:101420005025C3F80080DDF854350132CDF8502541
:10143000FB18072ACDF854350BDD0DF5A862484698
:1014400031460C32FFF7D4FC00287FF4FFADDDF805
:10145000543511980C9A0F998A42ACBF80184018E5
:101460001190002B40F042830DF59C640023DDF8C1
:101470002CA00434CDF8503530E51692002A3FF404
:10148000DDAD0DF5A46001234FF0000C04300C938A
:101490008DF824258DF877C51390109300211791AE
:1014A00087E69DF87735002B40F02B850B992B466E
:1014B0008DF877C52A780B9153E50B990A9B43F079
:1014C00001030A932B462A780B914AE50B990B9A54
:1014D00009680F91111D0F9B002BC0F280872A789D
:1014E0002B460B913DE50B992B468DF877052A7815
:1014F0000B9136E50B990A9B43F004030A932B46A4
:101500002A780B912DE52B4613F8012B2A2A01F09E
:10151000CD80A2F13001092901F237800235002780
:1015200015F8012C07EB87072B46013501EB470720
:10153000A2F130010929F3D947EAE7771D4611E501
:101540000B992B460A9A42F080020A922A780B9154
:1015500007E5A2F130014FF000082B4608EB8808A0
:1015600013F8012B01EB4808A2F130011D460929AF
:10157000F3D9CDF83C801D46F4E40A9B169243F063
:1015800010030A93DDF828C01CF0200F00F05D81E5
:101590000B98C31D23F0070303F108010B91D3E956
:1015A00000ABBAF1000F7BF10002C0F29B845AEA53
:1015B0000B034FF001030CBF00220122BCE50A9887
:1015C000169210F0080F00F0ED840B99CB1D23F05C
:1015D000070303F108020B92D3F80480D3F800A0AC
:1015E000CDF86C80CDF848A05046414604F09AF9F9
:1015F0008346002800F0998550460022002341468A
:1016000005F092F9002840F00B859DF8773547F2F8
:10161000D01147F2CC121698C2F20001C2F20002B9
:101620004FF0030C4728D8BF114613910A99CDF803
:1016300030C021F08001CDF840C00A914FF0000C7D
:10164000CDF85CC0B1E50B990A9B43F008030A93FF
:101650002B462A780B9184E40A9941F040010A91C3
:101660000B993CE72A786C2A00F055850B990A9B68
:101670000B9143F010030A932B4672E40A9A12F07E
:10168000200F00F082840B98119A036810464FEAED
:10169000E0710B9AC3E9000102F1040A1EE41692FC
:1016A0000A9A12F0200300F0EF800B9BDA1D002352
:1016B00022F0070202F1080CCDF82CC0D2E900ABF1
:1016C0005AEA0B000CBF0022012231E50B98782169
:1016D000DDF828C01691036847F2DC108DF8751507
:1016E00030218DF874154CF0020C0B991A1E18BF9E
:1016F0000122C2F200009A464FF0000B0431CDF8EF
:1017000028C0199002230B9112E50B9B16924FF003
:101710000002181D8DF877251B680B901393002B82
:1017200000F0C686002F1398C0F28F8600213A463B
:1017300003F0A6F80346002800F0F58613981B1A5C
:101740001093BB4240F3BE851097002127EAE7774C
:101750009DF877350C97179127E5DDF828C016928C
:101760001CF0200F23D00B980123C21D22F007028A
:1017700002F108010B91D2E900AB5AEA0B020CBF4F
:1017800000220122D4E40A992B4641F020010A915B
:101790000B992A780B91FFF7E4BB0A9B169243F052
:1017A00010030A93DDF828C01CF0200FDBD10A9B40
:1017B00013F0100F00F0D5830B980123021D0B923C
:1017C00001680A1E18BF01228A464FF0000BAFE4E1
:1017D0000A98169247F2B81210F0200FC2F20002D7
:1017E00019927FF492AC0A9B13F0100F40F01A8309
:1017F0000A9A12F0400F00F015830B9B03F1040CC2
:10180000CDF82CC0B3F800A0D2464FF0000B85E411
:1018100016920DF5A4610B9A4FF0010C4FF00000E9
:101820000431CDF830C0136804328DF877050B927F
:101830001391CDF840C08DF824352FE6DDF828C08F
:1018400016921CF0200F7FF4A3AE0A9A12F0100F2C
:1018500040F0F1820A9A12F0400F00F0EC820B9BEC
:1018600003F1040CCDF82CC0B3F900A0D2464FEA26
:10187000EA7B96E60A99169241F010010A910A9ABB
:1018800012F020037FF411AF0A9911F0100200F05A
:1018900054830B9A02F1040CCDF82CC011680A1E77
:1018A00018BF01228A464FF0000B41E4169A652AC0
:1018B00040F328811298002200231B9905F02AF892
:1018C000002800F0BE8101236360DDF8502547F257
:1018D000F813C2F200032360DDF854350132CDF86D
:1018E00050250133072ACDF85435D8BF04F1080339
:1018F00000F39B83DDF870251A98824204DB0A9975
:1019000011F0010F3FF449AD01225A60DDF8502576
:10191000DDF8541501321D980131072ACDF8541510
:101920001860CDF8502500F35F8508331A994F1ED3
:10193000002F7FF732AD102FDFF8348540F3EA82B5
:1019400042460DF5A86AA84610240AF10C0A15466D
:1019500003E0103F102F40F3DA825C60DDF8502581
:10196000DDF8541501321D601031072ACDF85415E9
:1019700003F10803CDF85025EBDD484631465246C9
:10198000FFF736FA0DF59C6304330028E1D0FFF72A
:101990005DBB7BB90A9911F0010F0BD00DF5A46264
:1019A000302304328DF84B352732012313921093E4
:1019B000FFF7F3BB1898002110911390FFF7EDBBD0
:1019C0000F980C99471A002F7FF784AC102FDFF87F
:1019D000A0842EDD43460DF5A86BA8464FF0100AF3
:1019E0000BF10C0B1D4602E0103F102F1EDDC4F85A
:1019F00004A0DDF85035DDF85425013325601032A0
:101A0000072BCDF8542504F10804CDF85035EBDD53
:101A10000DF59C64484631465A460434FFF7E8F910
:101A200000287FF413AB103F102FE0DC2B46454617
:101A300098466760DDF85035C4F800805A1CDDF820
:101A40005435CDF85025DB19072ACDF8543500F36D
:101A50003A8208343EE413996360DDF85025216032
:101A6000DDF854150132CDF85025CB18072ACDF8F2
:101A7000543500F3498508341D9A0123DDF870754B
:101A80006360DDF850352260DDF854250133CDF870
:101A900050350132072BCDF85425D8BF04F1080387
:101AA00000F323851398DDF87025C7191A981F6075
:101AB000811A5960DDF854158A1ADDF8501512188C
:101AC000CDF854250131CDF85015072940F3328265
:101AD0000DF5A862484631460C32FFF789F9002817
:101AE0007FF4B4AA0DF59C63043356E40DF5A862A7
:101AF000484631460C32FFF77BF900283FF4B4AC7E
:101B0000FFF7A4BA1A9901294CDD01236360DDF8BF
:101B10005035DDF85425013313980132072BCDF8E9
:101B200054252060CDF8503500F3B28108340123EC
:101B30006360DDF85035DDF8542501331D9901321D
:101B4000072BCDF854252160CDF8503500F3928154
:101B500008341298002200231B9904F0DBFE0028B1
:101B600040F01D811A9B13985A1E6260DDF85035B3
:101B7000411C2160DDF854150133CDF850358A1829
:101B8000072BCDF8542521DC08341C9B0DF5AC62E5
:101B90001C9822606360DDF85035DDF85425013370
:101BA000FFF7F0BB0A9A12F0010FAED1139A01238E
:101BB0006360DDF850352260DDF854250133CDF83F
:101BC00050350132072BCDF85425DDDD0DF5A86227
:101BD000484631460C32FFF70BF900287FF436AA4D
:101BE0000DF59C640434D0E70DF5A86248463146F3
:101BF0000C32FFF7FDF800287FF428AA0DF59C644D
:101C00000434FFF7B0BB0DF5A862484631460C32EC
:101C1000FFF7EEF800287FF419AA0DF59C64043450
:101C2000FFF73CBB0DF5A862484631460C32FFF782
:101C3000DFF800287FF40AAA0DF59C640434FFF74E
:101C400043BBDDF87035002B40F3FD811A998B42C0
:101C5000FFF601AF139A6160DDF850352260DDF8C0
:101C600054250133CDF850355218072BCDF85425A3
:101C7000D8BF04F1080300F32984DDF870451A98F1
:101C8000241A002C40F3B381102CDFF8E48140F3D8
:101C90009D8142460DF5A86AA84610270AF10C0A54
:101CA000154603E0103C102C40F38D815F60DDF899
:101CB0005025DDF8541501321D601031072ACDF88A
:101CC000541503F10803CDF85025EBDD48463146A5
:101CD0005246FFF78DF80DF59C6304330028E1D0E0
:101CE000FFF7B4B9189A1998134613920AF00F0225
:101CF0004FEA1A1141EA0B714FEA1B1C825C8A46BB
:101D0000E3465AEA0B0C03F8012DEFD11898139310
:101D1000C01A1090FFF741BA09220023524573EB15
:101D20000B00DDF860801FD223464446B8461F46AC
:101D3000504659460A22002304F046FE002350462E
:101D4000594602F1300C0A2204F801CD04F03CFEA1
:101D50000922002382468B46524573EB0B03E7D3DF
:101D60003B464746A0461C4608F1FF300AF1300AC0
:101D7000139008F801AC1899091A1091FFF70DBAE1
:101D80000DF5A862484631460C32FFF731F80028BD
:101D90007FF45CA90DF59C640434FFF768BA1A99C6
:101DA0004F1E002F7FF7F1AE102FDFF8C4804EDDFD
:101DB00043460DF5A86BA8464FF0100A0BF10C0B2B
:101DC0001D4602E0103F102F3EDDC4F804A0DDF8F0
:101DD0005035DDF85425013325601032072BCDF83E
:101DE000542504F10804CDF85035EBDD0DF59C6465
:101DF000484631465A460434FEF7FAFF0028E1D03F
:101E0000FFF724B916983021DDF828C001220223FB
:101E10008DF874154CF0020C8DF87505CDF828C0BE
:101E2000FFF786B90B98011D03680B919A464FF096
:101E3000000BFFF773B90B98011D03680B919A46CD
:101E40004FEAEA7BFFF7ADBB2B46454698466760F5
:101E5000DDF85035DDF854250133C4F80080D2197F
:101E6000072BCDF85425CDF850357FF78DAEADE674
:101E7000A87100200DF5A862484631460C32FEF7E5
:101E8000B7FF00287FF4E2A80DF59C64043460E6F7
:101E90000DF5A862484631460C32FEF7A9FF00282E
:101EA0007FF4D4A80DF59C64043440E6302800F09B
:101EB000EC821398302300F8013D18991390091A09
:101EC0001091FFF76AB90DF5A862484631460C3209
:101ED000FEF78EFF00287FF4B9A80DF59C6404344A
:101EE000FFF7F8B9DAF1000A6BEB4B0B2D235AEA36
:101EF0000B0C8DF877350CBF002201220123FFF770
:101F00001BB90B992B462A780B91FFF72AB82A4662
:101F1000454690465F60DDF85025DDF854150132E6
:101F2000C3F80080C919072ACDF85415CDF85025FB
:101F30003FF7CEAD0833FFF730BA0A9810F04003F0
:101F400000F0ED810B9913460A1D0B92B1F800A029
:101F5000BAF1000218BF0122D2464FF0000BFFF782
:101F6000E7B80A9B13F0400F00F0CC810B980123D7
:101F7000011D0B91B0F800A0BAF1000218BF0122B8
:101F8000D2464FF0000BFFF7D3B80A9B13F0100FA7
:101F900000F0A4810B98119900F1040A03681960FC
:101FA000FEF79CBF0B98C31D23F0070303F1080144
:101FB0000B91D3F80480D3F800A0CDF86C80CDF855
:101FC00048A0FFF711BB2A46454690465C60DDF805
:101FD0005025DDF854150132C3F800800919072A8D
:101FE000CDF85415CDF8502500F3EA8208330A994C
:101FF00011F0010F3FF4D1A901225A60DDF85025FC
:10200000DDF8541501321D980131072ACDF8541519
:102010001860CDF850253FF75BAD0833FFF7BDB929
:102020002D238DF87735FFF7F2BA0DF5A8624846F3
:1020300031460C32FEF7DCFE00287FF407A80DF5D0
:102040009C63043356E401236360DDF8502547F2B6
:10205000F813C2F200032360DDF854350132CDF8E5
:1020600050250133072ACDF85435D8BF04F10803B1
:1020700000F38781DDF870253AB91A9A2AB9DDF89C
:1020800028C01CF0010F3FF488A901225A60DDF836
:102090005025DDF8541501321D980131072ACDF87D
:1020A00054151860CDF8502500F379810833DDF818
:1020B00070757F42002F40F3B381102FDFF85086F8
:1020C00040F3D28142460DF5A86AA84610240AF1D1
:1020D0000C0A154603E0103F102F40F3C2815C60EC
:1020E000DDF85025DDF8541501321D601031072A46
:1020F000CDF8541503F10803CDF85025EBDD484623
:1021000031465246FEF774FE0DF59C6304330028F9
:10211000E1D0FEF79BBF0B996B1C0A9A42F020029C
:102120000A926A780B91FEF71CBF5046414603F0B5
:102130000BFC002840F0FF80B7F1FF3F00F0518218
:102140001698672814BF00230123472808BF43F0CF
:10215000010313B1002F08BF01270DF5AB60434603
:1021600052460A99C0E90023DDF85C3541F48071DC
:102170000A91002BC0F264820021179116986628FC
:1021800014BF00230123462808BF43F00103109326
:10219000002B00F0D181BC460323CDF830A00DF513
:1021A000AE61CDF834804846009302910DF5AC61E4
:1021B000DDE90C230C31CDF804C003910DF5AD61C0
:1021C000CDF824C0049100F0C7FB169ADDF824C0B6
:1021D000B2F1670318BF0123472A0CBF002303F0A5
:1021E0000103139033B90A9B13F0010F08BFDDF808
:1021F00068B516D01398109900EB0C0B31B1037829
:10220000302B00F0DA80DDF870359B445046002218
:102210000023414604F07EFB002800F0C281CDF887
:1022200068B5169A1398672A14BF00230123472A1A
:1022300008BF43F00103C0EB0B001A90002B00F025
:102240008A81DDF8701511F1030F109102DB8F42C6
:1022500080F28C81169A023A16921099169A4B1EA9
:10226000CDF87035002B8DF86025C0F234822B221A
:102270008DF86125092B00F3B6810DF5AC62303382
:1022800004328DF8633530238DF862350DF5AC637B
:102290001A981A99D31A18181C930129109040F310
:1022A000108210980130109020EAE0710C9117987C
:1022B000002800F06E812D2300218DF877351791CD
:1022C000FEF774BF109A4FF0000C9DF8773522EAA4
:1022D000E272CDF85CC00C92FEF767BF0A9A12F06A
:1022E000400F17BF0B980B9A119900F1040A11BF08
:1022F000036802F1040A1368119814BF198018606A
:10230000FEF7ECBD0B9A131D0B93116801230A1EF7
:1023100018BF01228A464FF0000BFEF709BF0B9849
:10232000021D0B9201680A1E18BF01228A464FF057
:10233000000BFEF7FDBE47F2D81247F2D4131699F0
:10234000C2F20003C2F2000203204729D8BF1A4696
:1023500013920A9A0C9022F08002CDF85CB00A9297
:102360009DF877351090FEF720BF0DF5A86248461E
:1023700031460C32FEF73CFD00287EF467AEFEF7D6
:1023800062BE0DF5A862484631460C32FEF730FDBC
:1023900000287EF45BAE0DF59C6304336AE60DF510
:1023A000A862484631460C32FEF722FD00287EF432
:1023B0004DAE0DF59C63043379E6504600220023B0
:1023C0004146CDF824C004F0A5FADDF824C0002869
:1023D0007FF419AFCCF10103CDF8703515E70F9AF2
:1023E00052420F92FFF787B80DF5A8624846314672
:1023F0000C32FEF7FDFC00287EF428AE0DF59C6340
:102400000433FFF793BA0DF5A862484631460C3203
:10241000FEF7EEFC00287EF419AE0DF59C63043344
:102420001A9913985960DDF85025DDF85415186095
:1024300001321A98CDF850250918072ACDF85415FD
:102440003FF746AB0833FEF7A8BF0021179103F012
:10245000D3FB9DF8773520EAE07210900C92FEF7DE
:10246000A4BE2A46454690465F60DDF85025DDF85B
:1024700054150132C3F80080C919072ACDF8541544
:10248000CDF85025BFDC0833CAE7189A1399511AC2
:102490001091FEF782BE4846314600F049F9002807
:1024A0007EF4D8ADB6F80CC01FFA8CF3FEF7F6BC7C
:1024B000062F28BF062747F2F011C2F2000127EAD3
:1024C000E772109713910C92FEF7E8BF0DF5A86222
:1024D000484631460C32FEF78BFC00287EF4B6AD40
:1024E0000DF59C630433FFF7C8BB0DF5A8624846A1
:1024F00031460C32FEF77CFC00287EF4A7AD0DF5CA
:102500009C630433FFF7CEBA0DF5A8624846314606
:102510000C32FEF76DFC00287EF498AD0DF59C643E
:102520000434FFF7A9BA109727EAE77717900C97BA
:102530009DF87735FEF739BE1699652914BF00233B
:102540000123452908BF43F00103002B46D007F1C2
:10255000010C022321E6169B652B76DD169A662A6E
:102560001CBFDDF87035109300F083801A9B109823
:1025700083426EDC0A9911F0010F40F08E8020EA50
:10258000E07267230C92169391E600271D46FEF732
:10259000E9BC10999DF8773521EAE1710C91FEF7BD
:1025A00004BEDDF868359B4598BF9B467FF639AE83
:1025B000302203F8012B9B45CDF86835F9D830E679
:1025C0000DF5A862484631460C32FEF711FC002892
:1025D0007EF43CAD0DF59C63043308E5BC46023344
:1025E000DBE50737B9E546F2676C0DF5906103311D
:1025F000C6F2666C8CFB0320DA17C2EBA00202EB7A
:102600008200A3EB400013463030092A01F8010D87
:10261000F0DC3033481EDAB201F8012C079B83420C
:102620006AD90DF5AC63033301E011F8012B03F80F
:10263000012C1A46DDF81CC001338C45F5D825E67F
:102640002D2208F10048179298E5DDF870051090EA
:1026500003E6109B1A99002BDABF1098C0F1020311
:1026600001235B186722109323EAE37316920C93FD
:102670001DE6DDF870050028109031DD1FB90A99BC
:1026800011F0010F0ED0109866211691431CDB1932
:10269000109323EAE3720C9209E6109867211691D1
:1026A0000130109020EAE0720C9200E60B991A7843
:1026B0000F6804310B91002FB8BF4FF0FF37FEF7C2
:1026C00050BC0A9A12F0010F04BF20EAE0730C9389
:1026D0003FF4EDADE5E52D225B428DF86125C9E5BE
:1026E00077B90A9B13F0010F0AD14FF0010CCDF816
:1026F00030C0CDF840C0DAE50DF5AC620232C5E578
:102700000237662127EAE772109716910C92CEE500
:10271000A871002010B447F21C44C2F200048C4699
:10272000134601466246206810BCFEF76FBB00BF2F
:1027300070B547F21C45C2F2000506460C462868F3
:1027400010B18369002B36D047F20C23C2F200038C
:102750009C4238D047F22C23C2F200039C4241D065
:1027600047F24C23C2F200039C4204BF2B68DC6892
:10277000A289114693B213F0080F184618BF2269B8
:1027800033D01AB313F0010107D063690021A160AF
:102790005B42A36142B1002070BD13F0020F08BF7D
:1027A0006169A160002AF6D1A38913F0800FF2D0ED
:1027B0004FF0FF3070BD01F08BF947F20C23C2F2ED
:1027C00000039C42C6D12B685C68D1E703F42071FA
:1027D000B1F5007FD6D03046214601F001FDA38936
:1027E0002269CFE72B689C68C2E713F0100FDFD097
:1027F00013F0040F08BF226917D0616B51B104F1C7
:102800004403994203D0304601F0E6F9A28990B220
:102810000023636322694FF6DB71C0F200010023DD
:1028200000EA01016360A181226041F00803A381F5
:102830009BB2A6E7000000002DE9F84F03690E697E
:10284000824689469E4200F38380F21C01F1140502
:1028500000F11404013E92008B18121803F10408D1
:1028600059685068013103F0F7FA0746002839D05B
:1028700000239C461A46E958E0581FFA81FE4FEAA9
:10288000114B81B20EFB07CE51180BFB07FC0CEB72
:102890001E4C1FFA8EFECEEB01011FFA8CF24FEA9E
:1028A0001C4CC2EB10421FFA81FE02EB21424EEAA1
:1028B0000241E1500433121459198845DBD2321D0C
:1028C0000AEB8203596869B99C4209D25AF822205E
:1028D00012B105E01A681AB9043B013E9C42F9D3D3
:1028E000CAF810604946504602F0E8F900282CDB8F
:1028F000002301379C46EA58E05891B2120C1FFAA7
:1029000080F9C2EB1042C1EB0901614402EB2142A4
:1029100089B241EA0241E15004334FEA224C5A198C
:102920009045E8D2321D0AEB8203596869B99C428E
:1029300009D25AF8222012B105E01A681AB9043BEC
:10294000013E9C42F9D3CAF810603846BDE8F88FC2
:102950000020BDE8F88F00BF2DE9F04F466AA1B016
:102960000446904699462D9D002E00F0238432683F
:1029700082B1616A4FF0010C766820460B685660A0
:102980004A6819460CFA02F29A6002F0D1FA636AB8
:1029900000221A60B9F1000638DB00232B6040F2F8
:1029A0000003C7F6F0731A4606EA0303934217D0F2
:1029B0000022002340464946CDE9068903F0AAFFDC
:1029C000002829D02C9801232E990360002900F0BB
:1029D000D080794B581E2E9A136021B0BDE8F08F3D
:1029E0002C9842F20F730360B8F1000F00F095804D
:1029F00047F20820C2F200002E990029EDD0C278DB
:102A0000C31C002AE7D000F10803E4E726F00046E3
:102A10000123B1462B60C2E72046DDE906231EA94B
:102A200000911FA9019102F0D5FAC6F30A55834619
:102A3000002D7ED0DDE90601A5F57E751F9F073DBF
:102A400021F07F4323F4700343F07E51002341F4CF
:102A5000E001199340F200030022C3F6F87303F07B
:102A60003DFB4FA3D3E9002303F0ECFC4EA3D3E9D5
:102A7000002303F035FBCDE90801284603F07CFC78
:102A80004BA3D3E9002303F0DDFC02460B46DDE94E
:102A9000080103F025FBCDE9080103F06DFF0022DA
:102AA00000230646DDE9080103F03EFF40B1304651
:102AB00003F062FCDDE9082303F02CFF00B9013EBE
:102AC000162E5BD901231893013FB7EB050A42BFCD
:102AD000CAF1000ACDF83CA04FF0000A01D4002250
:102AE0000F92002EC0F27183B24400231796159303
:102AF0002A9B092B62D8052B40F377862A9800275A
:102B000004382A902A998B1E032B00F2DD83DFE81C
:102B100013F0A503D803D503C40326F07F4626F49B
:102B20007006002E7FF464AF47F2FC10C2F2000082
:102B300062E71F9F1E9BFB1803F586639D1C202DDB
:102B4000DCBFC5F1200008FA00F008DD1E3BC5F12E
:102B5000400216FA02F228FA03F342EA030003F0F5
:102B6000FBFBA5F586650122033D1992A1F1F871E1
:102B700070E747F2F810C2F200002EE747F2B023E8
:102B8000DDE90601C2F2000303EBC603D3E900232B
:102B900003F0CAFE002840F02083189094E700BF9D
:102BA00061436F63A787D23FB3C8608B288AC63F53
:102BB000FB799F501344D33FF971002000234FF05D
:102BC000FF301F4601212A931190169108902B93F4
:102BD000656A00236B602046696802F0C5F9636A84
:102BE00028601B681093002F00F05B81002E40F3DB
:102BF0002A8447F2B02306F00F02C2F20003351117
:102C000003EBC20315F0100FD3E90001CDE90C016D
:102C100000F0E78247F28833DDE90601C2F20003E3
:102C200005F00F054FF00308D3E9082303F034FD46
:102C3000CDE91201BDB147F28837DDE90C23C2F2BC
:102C4000000715F0010F1046194607D0D7E90023F9
:102C500008F1010803F0F6FB02460B4608376D1039
:102C6000EFD1CDE90C23DDE90C23DDE9120103F0FE
:102C700013FDCDE90C011899002900F0DE8040F227
:102C80000003DDE90C010022C3F6F0734FF00005EC
:102C900003F04AFE08B14FF00105089A002AD4BF9C
:102CA000002505F00105002D00F0C780119B002BC9
:102CB00040F3F58040F200030022C4F22403DDE972
:102CC0000C0103F0BFFBCDE90C0108F10100711EFE
:102CD000129103F051FB02460B46DDE90C0103F0B3
:102CE000B1FB40F200030022C4F21C0303F0F8F928
:102CF000DDF844C08046A1F15079169B002B00F00E
:102D0000AD8347F2B02340F20001C2F2000300207D
:102D100003EBCC03C3F6E071CDF80CC053E90223FA
:102D200003F0BAFC42464B46109D03F0D7F98046AB
:102D30008946DDE90C0103F01FFE074603F01CFB8A
:102D400002460B46DDE90C0103F0C8F907F1300338
:102D5000CDE90C01404605F8013B4946DDE90C236D
:102D600003F000FE002840F0138240F20001DDE98C
:102D70000C230020C3F6F07103F0B0F902460B46B5
:102D80004046494603F0EEFDDDF80CC0002840F057
:102D9000E783BCF1010F40F38280CDF868B00127D2
:102DA000CDF870A01D966646DDE90CAB0C9410E0E2
:102DB00040F200010020C3F6F07103F08FF94246A3
:102DC0004B4603F0B1FD002840F0C783B74280F2C4
:102DD0008B8440F20003404649460022C4F224039B
:102DE000013503F02FFB40F200030022C4F224035C
:102DF000804689465046594603F024FB8B4682465E
:102E000003F0BAFD044603F0B7FA303402460B462D
:102E10005046594603F062F9109A4B46D455424643
:102E2000013782468B4603F07FFD52465B46002801
:102E3000BED0DDF868B00C9CAAE1404603F09CFAD5
:102E4000DDE90C2303F0FEFA40F200030022C4F295
:102E50001C0303F045F9089AA1F150758046A94674
:102E6000002A40F0EC8240F20003DDE90C01002270
:102E7000C4F2140303F032F942462B46CDE90C01AB
:102E800003F070FD002840F04A824246DDE90C0163
:102E900005F1004303F048FD002840F0D581DDE94D
:102EA00006891E9B6FEA03074FEAD7770E2ECCBF29
:102EB000002707F00107002F00F0B7802B9847F29A
:102EC000B023C2F20003089903EBC603C20F002926
:102ED000CCBF002202F00102D3E90001CDE90401D8
:102EE000002A40F0A08102460B464046494603F0C6
:102EF000D3FB109D03F040FD824603F03DFADDE96F
:102F0000042303F09FFA02460B464046494603F06D
:102F1000E5F80AF1300305F8013B089A012A8046DA
:102F2000894652D040F200030022C4F2240303F089
:102F300089FA00220023CDE9060103F0EBFC00280A
:102F400040F0EB8110984FF00108CDF82CB0A3466B
:102F5000871C0F96DDF82090DDE906450AE003F0B6
:102F600071FA0022002304460D4603F0D3FC00282A
:102F700040F0CE81DDE904232046294608F101080E
:102F800003F08AFB3E4603F0F7FC824603F0F4F9B7
:102F9000DDE9042303F056FA02460B462046294693
:102FA00003F09CF800220AF1300C07F801CC01373D
:102FB000C14540F20003C4F22403D0D135465C463B
:102FC0000F9E8046DDF82CB0894642464B4640466F
:102FD000494603F085F8804689464246DDE904010A
:102FE0004B4603F0A1FC60B9DDE9040142464B46C3
:102FF00003F090FC002800F090811AF0010F00F01F
:103000008C81109900E01D4615F8012C6B1E392AA1
:1030100040F067838B42F6D110993023013631227C
:103020000B70109B1A701296B2E0169A002A40F0AC
:10303000DF80159F0F9D0C92002DD4BF002301232C
:10304000BAF1000FD4BF002303F001034BB1AA452E
:10305000B4BF53462B460F98C3EB0A0AED1AC01AA9
:103060000F90159900291CDD169A002A00F0E982BC
:10307000002F12DD0C993A46204602F0D5F95A4647
:103080000C9020460C9902F0E7F85946034620467A
:10309000039301F04DFF039B9B46159BDA1B40F009
:1030A00011830121204602F071F90690179800283B
:1030B00005DD06992046179A02F0B6F906902A997E
:1030C000012940F30A810027179B002B40F0618201
:1030D0000123534413F01F0340F02A811C230F9A4D
:1030E0009A44ED18D2180F920F9B002B05DD59461C
:1030F0001A46204602F052F88346BAF1000F05DD69
:1031000006995246204602F049F806901898002881
:1031100040F029822A9808990228D4BF002301236D
:103120000029CCBF002303F00103002B00F00C8129
:10313000002940F08C8005220699089B204602F069
:103140002FF906905846069901F0B8FD00287EDD5B
:10315000109D01360027DDF830A0312305F8013B32
:103160000699204601F0E4FEBAF1000F00F0D58088
:103170003B1E18BF012357450CBF002303F001037A
:10318000002B40F0D0805146204601F0D1FE12962F
:103190002046594601F0CCFE129A531C00222A7098
:1031A0002C982E990360002900F0D4812E9A109853
:1031B000156012E4102001F089F8C6604660866050
:1031C000066006466062FFF7D2BB0F98714200228C
:1031D0001591801B17920F908AE40021013E1891EF
:1031E00072E4DDE906234FF00208CDE9122321E560
:1031F0002A98012840F36C82089A1598531E984229
:10320000C0F25882C71A089B002BA8BF0F9DC0F2BE
:1032100073820F9A204601219A44D2180F9202F02D
:10322000B5F80C9008E7089B73B940F20003002240
:10323000C4F21403DDE9040103F004F942464B46ED
:1032400003F086FB00286AD0002206920C922B9B8A
:103250000027DDF830A0DE43109D81E700211691A4
:103260002B98002840F39F812B98014611900890DD
:10327000656A002217296A6040F2AB8204235B0072
:10328000013203F114008842F9D9089B6A600E2BC1
:103290008CBF002707F001079DE4012216922B9BAB
:1032A000F3181193591C0029C8BF0891E0DC0E29BE
:1032B0008CBF002707F00107089189E401231693CA
:1032C000CEE700221692EAE74FF0FF3300270120F5
:1032D0001193169008932B977AE4B8F1000F7FF4BE
:1032E000F2AE29F07F4323F47003002B7FF4EBAEA2
:1032F00040F20003C7F6F07309EA0303002B3FF422
:10330000E2AE0F9A0AF1010A012701320F92DBE6C1
:1033100035465C460F9EDDF82CB0129638E700204B
:1033200006900C9014E73946204601F001FE2AE78A
:10333000C3F12003042B40F354820F99043B9A44B9
:10334000ED18C9180F91CFE61699002900F03181C8
:10335000002D05DD0C992A46204601F01FFF0C9038
:10336000002F40F0EA81DDF830A0109D012308F025
:1033700001000C9F11900F951D460C96069958461A
:10338000FFF75AFA394630300B90584601F096FC58
:10339000069952460646204601F084FEC3688046E0
:1033A000002B3DD04FF001094146204601F0C0FD01
:1033B0002A9959EA010103D1119A002A00F0EB8100
:1033C000002EC0F29E812A9A324303D1119B002B1A
:1033D00000F09781B9F1000F00F3CE810F990B9A9D
:1033E00001F8012B089B0F919D4200F0C2815946C4
:1033F0000A220023204601F0D3FF57453946834671
:1034000014D00A2200232046013501F0C9FF51469D
:103410000A2200230746204601F0C2FF8246ADE79C
:103420005846414601F04AFC8146BDE720460A2243
:103430000023013501F0B4FF074682469EE712964D
:10344000DDF820C059E47542002D40F00181DDE92E
:1034500006014FF00208CDE90C010CE447F2B0215F
:103460004246C2F200014B4601EBCC01CDF80CC044
:10347000109D51E9020102F0E5FFCDE91A01DDE9F5
:103480000C0103F079FA074602F076FF0B4602467C
:10349000DDE90C0102F022FE07F13003CDE90C0159
:1034A00005F8013BDDF80CC0BCF1010F29D0D14675
:1034B000DDE90C01B246109E1C9501276546A04629
:1034C00040F200030022C4F2240302F0BBFFCDE966
:1034D0000C0103F051FA044602F04EFF303402466C
:1034E0000B46DDE90C0102F0F9FDF4550137AF425E
:1034F000E6D11C9D013F56464446CA46ED19CDE92A
:103500000C0140F200030022C3F6E073DDE91A016A
:1035100002F0E6FD02460B46DDE90C0103F022FA5B
:10352000F0B940F20001DDE91A230020C3F6E07192
:1035300002F0D4FD02460B46DDE90C0103F0F4F97C
:1035400000283FF4ACAC2B461D4613F8012D302A61
:10355000FAD01DE61098FFF740BADDF868B00C9C71
:10356000129E109950E55846069901F0A7FB0028D5
:10357000BFF6D0AD594620460A22002301F010FFC5
:103580001699013E8346002940F01981119A08924C
:10359000C0E50698036900EB8303186901F03CFB62
:1035A000C0F1200395E50121119108912B91FFF7BE
:1035B0000FBB109DB146169FAA46DDF81880089EE5
:1035C00002E001F0EDFE834641465846FFF734F92C
:1035D00001350A220023594600F1300C0AF807C0D1
:1035E00001372046BE42ECDCDDF830A04E46002715
:1035F000CDF82CC059460122204601F0CFFD069996
:10360000834601F05BFB00280FDD109900E01D46AA
:1036100015F8012C6B1E392A40F08C808B42F6D1B4
:103620001099312301360B709AE503D10B9810F0F5
:10363000010FEAD12B461D4613F8012D302AFAD08E
:103640008EE55946159A204601F0EEFE834628E5A0
:1036500005F00F0347F2B022C2F20002DDE90601D5
:1036600002EBC303D3E9002302F0ECFE2D1108BFE7
:103670004FF00208CDE90C013FF4FDAA47F288376C
:10368000DDE90C234FF00208C2F2000715F0010F2C
:103690001046194607D0D7E9002308F1010802F0C7
:1036A000D1FE02460B4608376D10EFD1CDE90C2351
:1036B000FFF7E1BA1599179A5B1AC918D218159134
:1036C0001792A0E55946204601F0AEFE8346E8E495
:1036D0001999002947D003F58663159F03330F9D81
:1036E00097E50132D2B29DE4DDF868B0DDF870A054
:1036F0001D9E0C9CFFF7D3BB0F99002308980D1A51
:1037000087E5B9F1000F0F9D0C9E0FDD5946012290
:10371000204601F043FD0699834601F0CFFA0028C8
:1037200047DD0B99392931D001310B910B9A05F8FE
:10373000012B15E501321A7012E50C9A20465168EA
:1037400001F012FC0C9B03F10C011A690232920089
:1037500005460C3001F0CEF820462946012201F042
:103760001DFD824601E61F9B159F0F9DC3F1360389
:103770004FE50F9D0C9E3DE70B9B0F9D392B0C9E3B
:1037800004D00B98431C05F8013BE9E4392305F804
:10379000013B10993CE70B9833460F9D39280C9E4E
:1037A000F4D0002B01DD01300B900B9905F8011BC3
:1037B000D6E4BBD10B9810F0010FB7D0B1E70023CE
:1037C0000C9920460A2201F0EBFD119B08930C9006
:1037D000A0E408990E298CBF002707F00107FFF726
:1037E000FAB93FF481AC1C3379E40127FFF78AB9B9
:1037F0000B692DE9F0410C468046002B71D010B1C9
:103800008369002B78D047F20C23C2F200039C425C
:1038100008BFD8F8044010D047F22C23C2F20003AE
:103820009C4208BFD8F8084007D047F24C23C2F2A8
:1038300000039C4208BFD8F80C40A3891AB212F0CA
:10384000080F35D1626843F40063A381002A5EDD6E
:10385000E66A002E45D09BB213F4805218BF656D06
:1038600059D013F0040F4AD100234046216A2A465A
:10387000B047854238D1A1894FF2FF732269C0F267
:10388000000301EA03030021616013F4805F616BB0
:10389000A381226018BF656519B304F144039942FE
:1038A00002D0404600F098F900206063BDE8F08146
:1038B0002669B6B125682660AD1B12F0030F0CBF58
:1038C00063690023A3600AE032462B46A76A40469C
:1038D000216AB8470028C0EB0505064404DD002D29
:1038E000F2DC0020BDE8F081A3894FF0FF3043F007
:1038F0004003A381BDE8F08100F0EAF883E7626845
:10390000636BAD1A002BAFD0236CED1AACE7226CC1
:10391000002A9DDCE5E701234046216AB047B0F16B
:10392000FF3F054602D0A389E66A9AE7D8F800303F
:103930001D2BD6D0A38943F04003A381BDE8F081BD
:10394000014628B147F21C43C2F2000318684FE752
:1039500047F2901343F2F171C2F20003C2F2000188
:10396000186800F0B3BB00BF704700BF704700BFCE
:10397000704700BF704700BF0020704700207047AD
:1039800047F21C4343F67D11C2F20003C2F200016C
:10399000186800F0C5BB00BF47F21C4343F679111D
:1039A000C2F20003C2F20001186800F0B9BB00BF08
:1039B00045F69951C2F2000100F0B2BB47F29013F4
:1039C000C2F200031868F3E710B5044600235C3028
:1039D000A1811946E281082223606360A3606366C7
:1039E00023616361A36101F0A9F845F6F91045F67A
:1039F000BD1145F6951245F68D13C2F20000C2F2D4
:103A00000001C2F20002C2F200036062A162E2623F
:103A10002363246210BD00BF70B568250E4605FB08
:103A200001F505F10C0100F059FC044648B100F124
:103A30000C03002146602A4618462160A36001F06D
:103A40007DF8204670BD00BF47F29013C2F200031C
:103A500070B51D680646AB69002B2AD0D8356B6857
:103A6000AC68013B03D520E06834013B1DD4B4F9B8
:103A70000C20002AF8D100254FF0FF33656604F1D1
:103A80005C00E38129464FF001032560A3810822F1
:103A9000A560656025616561A56101F04FF8E56489
:103AA0006563A563A564204670BD286828B10546F6
:103AB000D5E7284600F00CF8D0E730460421FFF7A0
:103AC000ABFF28600028F2D10C2304463360EAE7FC
:103AD00070B58669044606B170BD43F6B113012581
:103AE000C2F20003C0F8D8608362C0F8DC60C0F89E
:103AF000E0608561FFF7A8FF60602046FFF7A4FF44
:103B0000A0602046FFF7A0FF324604212346E06074
:103B10006068FFF759FF2A46A06809212346FFF78E
:103B200053FF2346E06812210222BDE870404BE7B4
:103B3000F8B547F21054C2F200040F46054601F0F2
:103B400067F8A3685E6826F0030606F57E630F3308
:103B5000DF1B3F0B013F3F03B7F5805F07DB002111
:103B6000284601F0FFFEA368F318834204D02846DC
:103B700001F050F80020F8BD7942284601F0F2FE2D
:103B8000B0F1FF3F10D0A26847F63013C2F2000335
:103B9000F61B46F00106284656601A68D71B1F60C0
:103BA00001F038F80120F8BD0021284601F0DAFEC6
:103BB000A368C21A0F2ADADD47F6181447F6301147
:103BC000C2F20004C2F2000142F001022468001BAC
:103BD00008605A60CBE700BF2DE9F04105460C466E
:103BE000002900F0888001F013F8A4F1080247F2E0
:103BF00010505668C2F2000026F00103D0F808C049
:103C0000D1188C454F6827F0030700F0958016F017
:103C100001064F605FD00026CC19646814F0010FD4
:103C200006D1DB19002E7AD08C68C9688C60E160FF
:103C300043F00101D3505160002E47D1B3F5007F0E
:103C40005BD3590A04299EBF4FEA931C0CF1380C30
:103C50004FEACC0428D914299CBF01F15B0C4FEA30
:103C6000CC0421D954299EBF4FEA133C0CF16E0CB1
:103C70004FEACC0418D9B1F5AA7F9EBF4FEAD33CD6
:103C80000CF1770C4FEACC040ED940F2545C61453C
:103C900095BF4FEA934C4FF47C740CF17C0C4FF0C1
:103CA0007E0C98BF4FEACC040419A168A14203D14D
:103CB00064E089688C4204D0486820F003008342A5
:103CC000F7D3CB68D3609160CA609A602846BDE89C
:103CD000F04100F09FBF54F8084C00F1080C121B93
:103CE0001B199468644547D0D2F80CC0CCF8084042
:103CF000C4F80CC090E7BDE8F081DB084FF0010C80
:103D0000466800EBC3019B100CFA03F3D1608C688A
:103D100046EA030343609460E2608A60D6E78C68F9
:103D20001C4FBC4281D1D35043F00103E260A2603A
:103D300053609460D460C9E7FB1816F0010F07D1F7
:103D400054F8081C521A5B18D4689168A160CC60C2
:103D500047F61C118260C2F2000143F0010050607E
:103D60000A689342B2D347F62C132846C2F20003E6
:103D70001968FFF7DDFEA9E701264DE70126446833
:103D80004FEAAC0C0B4606FA0CFC44EA0C04446007
:103D900098E700BF187500202DE9F04F936885B0B3
:103DA00090460C460390002B64D088891FFA80FA55
:103DB0001AF0080F00F0A0800B69002B00F09C8027
:103DC0001AF0020BD8F800501CBF4FF0000A5746FB
:103DD00036D11AF0010A1DBFDC46D9465F46564669
:103DE00052D126B380B2A76810F4007F00F08F8014
:103DF000BE42BB4680F0A78020683746B3465A468D
:103E0000514600F03FFEA2682368B146D71BA76069
:103E100037465B442360D8F80830C9EB0606CA442D
:103E2000DF1BC8F808702FB3A089002EDAD1D5F8AF
:103E300000A06E680835D4E7D5F800A06F68083593
:103E4000B7F5806F34BF3B464FF48063524603980A
:103E5000002FF1D0A66A216AB04700288244C0EB47
:103E6000070740F3EC80D8F80830181AC8F80800A3
:103E70000028E5D1002005B0BDE8F08FD5F800900E
:103E80004FF0000C6F680835002FF7D0BCF1000F21
:103E900000F0B5806369BB4534BFDA46BA46A66810
:103EA000206822699E19904294BF00220122B245E7
:103EB000D4BF002202F00102002A40F0AE809A45F1
:103EC000C0F28280A66A4A46CDF804C00398216AEF
:103ED000B047DDF804C0061E40F3B180BBEB060B13
:103EE00000F08680D8F80830B144BF1B9E1BC8F88C
:103EF0000860002EC8D1BDE703982146FEF718FCE4
:103F0000002840F0D480A0891FFA80FA58E7206882
:103F1000B9462369984294BF00230123B7422CBFBE
:103F2000002303F00103002B40F09D8063699E4253
:103F3000C0F08C80A76A52460398216AB847071ED2
:103F40007DDDB94667E710F4906F08BF20683FF445
:103F500056AF62692169236802EB42095B1A09EBDB
:103F6000D97903F1010CB4444FEA6909E1454A46A5
:103F70003CBFE1464A4610F4806F00F08380114652
:103F80000398029300F0AAF9029B002800F09980A0
:103F90001A4621690293019000F0ACFCA289029BB1
:103FA000DDF804C022F4906242F08002A281C3EBEB
:103FB00009020CEB03003746B346A260C4F810C0F8
:103FC0002060C4F814901AE7524649465646CDF888
:103FD00004C000F057FDA2682368BBEB060BCAEBD8
:103FE0000202DDF804C05344A26023607FF47AAF7C
:103FF00003982146FFF7FCFB08BBDC4672E7484606
:104000000A213A4600F03CFC00284BD000F1010B9D
:104010004FF0010CC9EB0B0B3CE749463246CDF89B
:1040200004C000F02FFD2368214603989B192360EC
:10403000FFF7DEFBDDF804C000283FF44FAFA38993
:104040004FF0FF3043F04003A38114E7324651465E
:1040500000F018FDA26823683746921BB1469B19F1
:10406000A2602360D7E651463A4600F00BFD236874
:1040700003982146DB192360FFF7BAFB00283FF4C1
:10408000CAAEDCE70398029301F072FA029B844601
:1040900000288CD121690398FFF79EFD03990C231A
:1040A0000B60CCE707F1010B4FF0010CF2E603992E
:1040B0000922A3894FF0FF3043F040030A60A38137
:1040C000D9E6039A0C231360B9E700BF2DE9F84540
:1040D00007468A46FFF748FC17F1D80608BFB046E6
:1040E00018D04FF000087568B468013D0FD4B4F9DA
:1040F0000C304BB1B4F90E3021463846B3F1FF3FD6
:1041000002D0D04748EA00086834013DEFD5366850
:10411000002EE8D1FFF72AFC4046BDE8F88500BF35
:104120002DE9F04106468846FFF71EFCD83608BF49
:10413000374615D000277568B468013D0DD4B4F931
:104140000C303BB1B4F90E302046B3F1FF3F01D043
:10415000C04707436834013DF1D53668002EEAD1E7
:10416000FFF704FC3846BDE8F08100BF47F26C233E
:10417000C2F2000318687047004870477072002050
:10418000004870477072002070B505460E46144610
:1041900072B147F294111046C2F2000101F03EFCE8
:1041A00058B947F294102C62C2F20000EE6170BD63
:1041B00047F29410C2F2000070BD47F2C8112046C9
:1041C000C2F2000101F02AFC0028EAD0002070BDF4
:1041D00047F21C430A46C2F2000301461868D3E7BF
:1041E0008B89F0B50C469AB291B012F0020F0546D9
:1041F00041D1B1F90E10002918DB01AA01F0D4FD5C
:10420000002811DB029B03F47043B3F5005F14BF79
:1042100000270127B3F5004F40D0A3894FF48066F3
:1042200043F40063A3810BE0A3899AB212F0800FDC
:1042300043F400630CBF4FF4806640260027A3813F
:104240002846314600F04AF870B1A18943F6B11210
:10425000C2F20002206141F080016661AA62A18180
:1042600020607FB911B0F0BDA38913F4007FF9D1AC
:1042700043F00203A38104F1470323612360012378
:104280006361EFE72846B4F90E1001F0A3FD0028A2
:10429000E8D0A38943F00103A381E3E745F6951332
:1042A000E26AC2F200039A42B7D1A2894FF4806356
:1042B0001E46236542EA0303A381C1E747F21C437C
:1042C0000146C2F200031868FFF786BC47F21C43A0
:1042D0000146C2F20003186800F000B82DE9F04F63
:1042E00001F10B04162C83B006462FD800231024AE
:1042F0008C422CBF194643F00101002930D13046D1
:1043000000F086FCB4F5FC7F2ED24FEAD40E47F2C3
:104310001055C2F2000505EBCE02D368934200F0BF
:1043200006825A6803F10805D968304622F0030C6A
:104330009A6863445C688A6044F00104D1605C6000
:1043400000F068FC284603B0BDE8F08F24F00704B5
:10435000E30F8C422CBF194643F001010029CED057
:104360000C2300253360EDE75FEA542E04BF4FEACB
:10437000D40E4FEACE0040F0908047F21055C2F2C2
:1043800000052818C368984206D10DE0002A80F283
:104390006F81DB68984207D0596821F003010A1B3E
:1043A0000F2AF3DD0EF1FF3E0EF1010E47F210571A
:1043B000C2F2000707F108018B68994208BF7A68CA
:1043C00026D05A6822F0030CC4EB0C020F2A00F32B
:1043D0009481002AC960896080F29980BCF5007FD1
:1043E00080F065814FEADC0C4FF0010A7A6807EB38
:1043F000CC004FEAAC0C0AFA0CFCD860D0F808806C
:104400004CEA02027A60C3F80880C8F80C30836076
:104410004FF0010C4FEAAE030CFA03FC944500F296
:10442000828012EA0C0F08D12EF0030E4FEA4C0CDA
:104430000EF1040E12EA0C0FF8D007EBCE09F2468B
:10444000C846D8F80C30984507D168E1002A80F2B8
:104450007881DB68984500F06281586820F003009D
:10446000021B0F2AF2DD1D461F19D3F80CC044F0C1
:10447000010E55F8084F3046BA5042F00102C3F819
:1044800004E0CCF80840C4F80CC08F60CF607A60BC
:10449000B960F96000F0BEFB54E7BEF1040F9EBFA7
:1044A0004FEA941E0EF1380E4FEACE007FF665AF4C
:1044B000BEF1140F9CBF0EF15B0E4FEACE007FF6EB
:1044C0005CAFBEF1540F9EBF4FEA143E0EF16E0E6C
:1044D0004FEACE007FF651AFBEF5AA7F9EBF4FEAEE
:1044E000D43E0EF1770E4FEACE007FF646AF40F293
:1044F00054539E4595BF4FEA944E4FF47C700EF195
:104500007C0E4FF07E0E98BF4FEACE0035E703EBEE
:104510000C0203F108053046536843F00103536071
:1045200000F078FB0EE7D7F80880D8F8043023F0C5
:104530000309C4EB09024C4594BF002301230F2A51
:10454000D8BF43F00103002B00F0A18047F62C1BDD
:10455000D5F80824C2F2000BDBF8003010331B1929
:10456000B2F1FF3F06D003F57E631F3323F47E6371
:1045700023F01F0319463046019301F0F3F9019B24
:10458000B0F1FF3F824600F0F48008EB0901814260
:1045900000F2EC80DBF804209A185145CBF8042097
:1045A00000F04581D5F8085447F21050C2F20000DF
:1045B000B5F1FF3F08BFC0F808A403D05244511A18
:1045C000CBF804101AF00705304617BFC5F10805EF
:1045D0004FF48055AA4405F5805553441B051B0D27
:1045E000ED1A294601F0BEF9B0F1FF3F00F02C8131
:1045F000CAEB0001491941F00101DBF8042047F63C
:104600002C13C7F808A0C2F20003AA18B845CBF8CB
:104610000420CAF8041017D0B9F10F0F40F2DF8060
:10462000A9F10C01052521F0070108EB01000F2974
:1046300085604560D8F8040000F0010041EA000000
:10464000C8F8040000F2AC80D04647F62C13DBF823
:104650002C10C2F200038A42DBF8301088BFDA6205
:1046600047F62C13C2F200038A4288BF1A6382E025
:104670005C189A68D9683046666803F108058A6054
:1046800046F00103D160636000F0C4FA5AE608EB1B
:10469000040342F0010244F001043046C8F804402B
:1046A00008F108055A60BB6000F0B4FA4AE64FEA28
:1046B0005C22042A54D9142A00F289805B324FEA22
:1046C000C208A84447F21057C2F20007D8F8080001
:1046D000404503D16FE08068804504D0426822F0F5
:1046E00003029445F7D3D0F80CC0C3F80CC098600F
:1046F0007A68C360CCF808308AE61F19304644F067
:104700000104CF605C6003F10805BA5042F0010279
:104710008F607A60B960F96000F07CFA12E60AF105
:10472000010A1AF0030F5FD003F1080889E603F1CC
:104730000802D3689A4208BF0EF1020E3FF436AE6B
:10474000EFE51D461918DA68304655F8083F4C6801
:10475000936044F00104DA604C6000F05BFAF1E52C
:104760004FEA9C1238324FEAC208AAE7B8453FF434
:1047700011AFD7F80880D8F8042022F00302944241
:1047800094BF00230123121B0F2AD8BF43F001035B
:10479000002B3FF47CAF3046002500F03BFAD1E51A
:1047A00008F1080130460193FFF716FA019BD7F88C
:1047B00008805A6849E74FF0010AD7F80480921040
:1047C00084460AFA02F248EA02027A608DE7542A25
:1047D00024D84FEA1C326E324FEAC20871E7012337
:1047E000D046CAF80430C6E74A461EF0030F134607
:1047F0000EF1FF3E33D053F808299A42F5D07B687A
:104800004FEA4C0C9C453FF68EAEBCF1000F3FF4D6
:104810008AAE1CEA030F27D0D6460EE6B2F5AA7F71
:1048200015D84FEADC3277324FEAC20849E708056B
:10483000000D00287FF4B6AED7F808804B4443F053
:104840000103C8F8043000E701210025D5E640F255
:10485000545082420DD94FF47C787E2231E77B6838
:1048600023EA0C037B60CBE74FEA4C0C0AF1040A05
:10487000CFE74FEA9C427C324FEAC20821E700BFF3
:1048800010F0030FC9B210B410D0002A2FD0037853
:104890008B422AD0013A05E0002A28D00378013A59
:1048A0008B4222D0013010F0030FF5D1032A11D929
:1048B00041EA012444EA0444036884EA0303A3F1BF
:1048C000013C2CEA030313F0803F03D1043A043087
:1048D000032AF1D85AB103788B4206D0013A32B19B
:1048E00010F8013F013A8B42F9D110BC704700200B
:1048F000FBE700BF032A2DE9F0070BD83AB10023EC
:1049000011F803C000F803C001339342F8D1BDE8A9
:10491000F007704782180C46034603E014F8011CA8
:1049200003F8011C03F003061946A44601330134C1
:10493000002EF3D11CF00304634608BFC1EB020C48
:1049400068D06542C4F1040A0CEB050733464FEA10
:10495000CA0A5CF805604FEAC408551A08E057F81F
:10496000044F264604FA0AF449EA0404CC500433FE
:104970005C18032D26FA08F9A5F104050CEB0306D3
:10498000EDDC002302E0F15CE1540133191991429E
:10499000F9D3BCE753F8404C41F8404C53F83C4C39
:1049A00041F83C4C53F8384C41F8384C53F8344CEF
:1049B00041F8344C53F8304C41F8304C53F82C4CFF
:1049C00041F82C4C53F8284C41F8284C53F8244C0F
:1049D00041F8244C53F8204C41F8204C53F81C4C1F
:1049E00041F81C4C53F8184C41F8184C53F8144C2F
:1049F00041F8144C53F8104C41F8104C53F80C4C3F
:104A000041F80C4C53F8084C41F8084C53F8044C4E
:104A100041F8044C1C460D4640334031BCF13F0F79
:104A2000ACF1400CB6DC21462B46541B0FE051F88C
:104A3000105C43F8105C51F80C5C43F80C5C51F8C6
:104A4000085C43F8085C51F8045C43F8045C0F2CE4
:104A50000D469C4601F1100103F11003A4F110046E
:104A6000E5DCCCEB0201002303E0EC584CF80340FA
:104A700004335E19032903EB0C04A1F10401F4DCF7
:104A80007FE700BF88428C4670B4054614460ED9B5
:104A90008B1898420BD242B1C2EB030C0146531E55
:104AA0001CF80320CA54013BFAD270BC70470F2A8D
:104AB00009D8002CF9D000231CF80320EA54013354
:104AC000A342F9D1F1E741EA000313F0030FF0D15B
:104AD00094460C4603462568ACF1100C1D606568D1
:104AE0005D60A5689D60E5681034DD601033BCF141
:104AF0000F0FF0D8103A4FEA121C0CF10105CCEB65
:104B00000C7C2D0102EB0C1601EB050C4519032E54
:104B10003446CED900235CF80320EA500433F21A5D
:104B2000032AF8D8043EB3085A1CC3EB83739200DF
:104B3000944406EB8304AD18BBE700BF032AC9B257
:104B400030B407D822B10023C15401339342FBD1C2
:104B500030BC704700EB020C034601E003F8011C77
:104B600003F003041A460133002CF7D14FF0013350
:104B7000C2EB0C0403FB01F31FE042F8403C42F897
:104B80003C3C42F8383C42F8343C42F8303C42F875
:104B90002C3C42F8283C42F8243C42F8203C42F8A5
:104BA0001C3C42F8183C42F8143C42F8103C42F8D5
:104BB0000C3C42F8083C42F8043C154640323F2C7D
:104BC000A4F14004D9DC2A46C5EB0C0407E042F806
:104BD000103C42F80C3C42F8083C42F8043C1546B4
:104BE00010320F2CA4F11004F1DC2A46C5EB0C05A1
:104BF00001E042F8043C14460432032DA5F10405FB
:104C0000F7DC01E004F8011B6445FBD3A0E700BF1B
:104C1000704700BF704700BF020C03461204B2B1D8
:104C2000002013F07F4F01D108301B0213F0704FAA
:104C300001D104301B0113F0404F01D102309B0021
:104C4000002B03DB13F0804F04D0013070470304C6
:104C50001020E6E7202070470368024613F00700A3
:104C600009D013F0010F21D113F0020F22D19B08BC
:104C700002201360704799B209B91B0C102013F081
:104C8000FF0F01D108301B0A13F00F0F01D10430C0
:104C90001B0913F0030F01D102309B0813F0010F21
:104CA00002D15B0804D001301360704700207047C8
:104CB000202070475B0801201360704703460A6993
:104CC000006910B4801A11D1043203F1140C92005F
:104CD0009B1889180431043353F8044C043B51F8F1
:104CE000042C0439944203D19C45F5D310BC704781
:104CF00038BF4FF0FF30F9D30120F7E740F200034F
:104D0000C7F6F07301EA0303A3F15073002B02DD31
:104D10001946002070475B421B15132B0EDD143B18
:104D20001E2B03DD01230021184670470122C3F129
:104D30001F03002112FA03F3184670474FF40022B4
:104D4000002052FA03F170472DE9F041046900F1A7
:104D500014060F46043450F8245000EB8404A04697
:104D60002846FFF759FF0A28C0F120033B6014DCF6
:104D7000A642C0F10B0337D254F8041CD94025FADF
:104D800003FC15304CF07E53854043F4E00341EAC8
:104D9000050210461946BDE8F081A64220D3002145
:104DA0000B3802BF45F07E530A4643F4E003F0D0CF
:104DB000B442C0F1200319D954F8044CDC408540BA
:104DC00021FA03FC45F07E5511FA00F045F4E005A8
:104DD00044EA000245EA0C0310461946BDE8F0819A
:104DE00054F8041C043CDBE70021C8E70024E6E794
:104DF0002DE9F04383B00E4601A90746FFF7A4FF53
:104E00000D46044669463046FFF79EFFDDF804C0B4
:104E1000A946A0460B4602463169164638691F4628
:104E2000401A0099C1EB0C0101EB40110029C9BFE8
:104E300005EB0159A3EB015724464D46DCBF124652
:104E40003B462046294601F027FC03B0BDE8F0832D
:104E5000172810B504460EDD40F200010020C3F60D
:104E6000F07140F200030022C4F2240301F0EAFAD8
:104E7000013CF6D110BD47F2B023C2F2000303EBB0
:104E8000C003D3E9000110BD1369013902F1140C0C
:104E900010B402EB83024C1114320134944500EB40
:104EA00084040FD200235CF80310C150043303EBD9
:104EB0000C018A42F7D86FEA0C0C624422F003021C
:104EC00004328018844204D9002340F8043B844211
:104ED000FBD810BC704700BF02694B119A4210DB2F
:104EE0000EDD11F01F010BD01A4600EB83035B6946
:104EF00023FA01FC0CFA01F1994202D0012070471B
:104F00001A46043200F1140100EB820303F1040C91
:104F100061450BD250F82220002AEFD1994205D2E8
:104F200053F8042D002AE9D19942F9D300207047A3
:104F300030B5456A83B0044655B139B1636A4A68F1
:104F4000DB6853F82200086043F8221003B030BD3C
:104F500010200191FFF7BAF901996062C5604560C0
:104F600085600560E9E700BF70B5446A06460D46F6
:104F700064B1E268A2B152F82530EBB1196842F889
:104F800025100022DA601A61184670BD1020FFF764
:104F90009DF9002304467062C36043608360036030
:104FA00010223046042100F057FE736AE060DA6890
:104FB000002AE0D11346E7E7012430462146AC4001
:104FC000621D920000F048FE03460028DCD04560D8
:104FD0008460D6E72DE9F04583B001211D461446D3
:104FE0000A9F0B9EFFF7C0FF25F0004225F07F438C
:104FF00023F4700315465FEA125A00931CBF43F472
:10500000801300938046002C23D002A840F8044D62
:10501000FFF722FE0346002837D10199009AC8F80D
:105020001410002A14BF02240124C8F81820C8F85C
:105030001040BAF1000F1BD0AAF5866AC3F1350201
:10504000AAF1030A53443B603260404603B0BDE816
:10505000F0856846FFF700FE01231C46C8F81030B3
:10506000009BC8F8143000F12003BAF1000FE3D11F
:1050700008EB8402A3F58663023B3B601069FFF7EF
:10508000CBFDC0EB44103060DFE7009AC0F1200197
:1050900012FA01F1C24001980143C8F814100092BD
:1050A000BFE700BF2DE9F84F13690F690C4615469D
:1050B000FF1A002F4FD06ADB002701F11406616848
:1050C000FFF752FFD5F81080D4F810C005F1140195
:1050D000002205EB880504EB8C0405F11408143458
:1050E00000F11403C76051F8047B56F8045BBB461B
:1050F0001FFA87FA3F0C1FFA85F9C7EB1547CAEB71
:10510000090A524407EB224792B242EA074243F8A7
:10511000042B3A148845E6D8A6420ED256F8041B52
:105120008DB2090C521901EB224192B242EA0142BE
:1051300043F8042B0A14B442F0D853F8042C32B9C3
:1051400053F8082C0CF1FF3C043B002AF8D0C0F8BF
:1051500010C0BDE8F88F043301F114069B00D2188B
:10516000CB180433043253F804CC043B52F8041C2B
:10517000043A8C450AD19E42F5D30021FFF7F4FE94
:105180000123036100234361BDE8F88F97D22346D2
:105190002C4601271D4604F1140690E72DE9F84539
:1051A0000D698B68561101350C46AD1990469D422C
:1051B0008246496803DD5B0001319D42FBDC5046BD
:1051C000FFF7D2FE002E074600F114020ADD00238D
:1051D000194642F823100133B342FAD107EB830397
:1051E00003F11402206904F1140304EB800014306D
:1051F00018F01F081BD0C8F1200E00211E6806FA07
:1052000008FC41EA0C0142F8041B53F8041B9842C5
:1052100021FA0EF1F2D8116001B101355046013D7D
:1052200021463D61FFF784FE3846BDE8F88553F816
:10523000081042F8081008F1040808EB030188423E
:10524000ECD953F8081042F8081008F1040808EBEC
:1052500003018842EBD8E1E72DE9F04FD1F8108047
:1052600017690D46164687B0B845B5BF15463B468B
:105270000B464746B4BF1E469846AB6808EB07048A
:1052800069689C42C8BF0131FFF76EFE00EB8403E2
:1052900000F1140B143303909B45049306D2049938
:1052A0005B46002243F8042B9942FBD806EB8808A2
:1052B00006F1140908F1140805EB870C1435C145F3
:1052C000CDF804800CF1140C02954BD24FF0000A7B
:1052D000059459F80A400AEB0B08A0B2D8B1029A1B
:1052E0004346002452F8045B1968AFB22D0C8EB20D
:1052F000090C00FB076600FB0511361901EB16418E
:10530000B6B20C0C944546EA014643F8046BE9D862
:105310001C6059F80A40240C1CD05BF80A20414656
:10532000029B002510461E8897B206FB045505EB2C
:10533000104547EA05470F6051F8040F53F8042B56
:1053400086B2120C02FB046202EB1542150C9C455E
:10535000E9D80A600AF1040A019A0AEB09039A42A1
:10536000B7D8059C002C0BDD049A52F8043C3BB9DD
:10537000134603E053F8082C043B0AB9013CF9D169
:10538000039B18461C6107B0BDE8F08F10B50C46B2
:105390000121FFF7E9FD01224461026110BD00BF58
:1053A0002DE9F0450D46002106462C6983B005F134
:1053B0001408084658F8017001301FFA87FA4FEABE
:1053C000174C0AFB02330CFB02FC0CEB134C9BB298
:1053D00003EB0C4348F80130043184424FEA1C438C
:1053E000E8DC3BB1AA68944208DA05EB8402013498
:1053F0002C615361284603B0BDE8F08569683046EA
:1054000001930131FFF7B0FD2A6905F10C01023269
:10541000920007460C30FFF76DFA294630463D46AC
:10542000FFF786FD019BE0E72DE9F041154612F0FC
:105430000302044688462CD1AD101ED0666A002EA9
:1054400034D0B768002F3BD015F0010F08D16D1094
:1054500013D03E68A6B13046074615F0010FF6D0CE
:1054600041463A462046FFF7F7FE414606462046AB
:10547000FFF75EFD6D10B046EBD14046BDE8F08110
:1054800039463A462046FFF7E7FE38600746066091
:10549000E3E747F2B02C0023C2F2000C0CEB8202CF
:1054A000D2F8C420FFF77CFF8046C5E71020FEF746
:1054B0000DFF002306466062C360436083600360A3
:1054C000204640F27121FFF761FF0023B0600746DC
:1054D0000360B9E72DE9F8451E4648F6396306F141
:1054E000080CC3F6E30388460546174683FB0C13F6
:1054F0004FEAEC7CCCEB630CBCF1010F35DD0021F5
:105500000122520001319445FBDC2846FFF72CFDB7
:10551000089B43610123092F036122DD08F1090A79
:10552000092418F8043001460A220134303B284689
:10553000FFF736FFA742F4DC0AEB0708A8F10808DA
:10554000BE420CDD002418F80430014601340A2262
:10555000303B2846FFF724FFE3199E42F3DCBDE809
:10556000F88508F10A080927EAE70021CDE700BF1E
:105570002DE9F04F914683B007460E46002900F012
:105580003A81A1F1080809F10B04FFF741FB162C41
:10559000D8F804100B4600F2A08010220025144613
:1055A0004C4538BF45F00105002D40F02A8121F01F
:1055B000030A9245A2BF4046554608F1080875DA2D
:1055C00047F2105308EB0A00C2F20003D3F808E0D8
:1055D000864500F01A81D0F804C02CF0010B8344FA
:1055E000DBF804B01BF0010F7CD0AC46284611F06C
:1055F000010F40F09B8056F8081CC1EB080BDBF84C
:10560000045025F00305002800F0DD80704500F00F
:105610001F8105EB0A030CEB03059542B8BF1D463D
:10562000C0F2D28081685B46C068AAF10402242AD5
:105630008160C86053F8081FDBF80C008160C86007
:1056400000F2D080132A9C4621D931460BF1100C70
:1056500051F8040BCBF8080070680E1D1B2ACBF81C
:105660000C0014D94868311D0BF1180CCBF8100050
:1056700070680E1D242ACBF8140008D14A680BF17B
:10568000200CCBF8182072680836CBF81C20314665
:1056900098466246584651F8043B42F8043B73680A
:1056A000CCF804304B685360DBF80430C4EB050CD5
:1056B000BCF10F0F26D8421903F0010343EA050598
:1056C0004560536843F00103536038464546FFF791
:1056D000A1FA284603B0BDE8F08F24F00704224663
:1056E000E50F5DE72CF0030C0CEB0A059542FFF685
:1056F0007EAF82680B46C168404608F108088A60A0
:10570000D160D3E7011903F0010301EB0C0243EA76
:1057100004044CF0010344604B6038465368083180
:1057200043F001035360FEF757FACEE74946384687
:10573000FEF7D4FD0546002841D0D8F80430A0F18A
:10574000080223F0010141448A4200F0D780AAF107
:1057500004023146242A78D8132A034621D9344634
:1057600054F8043B211D40F8043B031DD6F804C047
:105770001B2AC5F804C014D9D4F804E01C1D01F19B
:10578000040CC0F804E048680CF104015860231DC3
:10579000242A06D1DCF8042062604A6808315A6085
:1057A000083308461A4650F8044B42F8044B49683F
:1057B00059604368536031463846FEF70DFA384663
:1057C000FFF728FA85E755449542AFDB5B46DBF8E7
:1057D0000C00AAF1040253F8081F242A8160C86053
:1057E0007FF630AF184631469846FFF74BF95846DA
:1057F000DBF804305AE7114603B0BDE8F04FFEF77E
:105800006DBD0C2300253B6063E7DEF8045004F116
:10581000100B25F0030C0CEB0A005845B8BF70467E
:10582000FFF6E5AE08EB0402011B41F001019A60AE
:1058300051603846D8F80410354601F001031C4386
:10584000C8F80440FFF7E6F943E7FFF71BF9B2E7B2
:10585000554404F11001AC448C45B5DB5D46DBF8E2
:105860000C00AAF1040255F8081F242A8160C860C0
:105870004CD8132A284624D931460BF1100051F890
:1058800004EBCBF808E0D6F804E00E1D1B2ACBF899
:105890000CE016D9D1F804E0311D0BF11800CBF85B
:1058A00010E0D6F804E00E1D242ACBF814E008D14D
:1058B0004A680BF12000CBF8182072680836CBF844
:1058C0001C203146024651F804EB42F804EB76689E
:1058D0004660496851600BEB0402C4EB0C0141F0D7
:1058E00001019A6051603846DBF8041001F00103B1
:1058F0001C43CBF80440FFF78DF9EAE655684046B3
:1059000008F1080825F003055544CFE6314628463E
:105910000093CDF804C0FFF7B5F8DDF804C0009B94
:10592000D9E700BF0246404240EA020321F00041AD
:1059300041EAD373C3F1FE4303F57003584240EAD2
:105940000303D8170130704702464042104321F04C
:10595000004141EAD070C0F1FE4000F57000C00F78
:10596000704700BF38B547F6B014C2F200040546D0
:10597000084600232360FAF75BFFB0F1FF3F00D039
:1059800038BD2368002BFBD02B6038BDB1F90E1059
:1059900000F090B910B50C46B1F90E1000F02EFAD7
:1059A000A389B0F1FF3F15BF606523F4805343F432
:1059B0008053A38118BFA38110BD00BF2DE9F04122
:1059C0001D468B890C461646074613F4807F06D089
:1059D0000223B1F90E10002200F010FAA38923F47B
:1059E00080533846A3813246B4F90E102B46BDE8E9
:1059F000F041FAF7F9BE00BF10B50C46B1F90E1030
:105A000000F012FA002803DB636D1B18636510BDFC
:105A1000A38923F48053A38110BD00BF80EA010253
:105A200012F0030F3AD110F0030220F0030021F02E
:105A3000030150F804CB08BF51F8043B0DD082F0AD
:105A400003024FEAC2026FF07F4323FA02F251F8D9
:105A5000043B4CEA020C43EA020300BFACF1013202
:105A60009C4501BF22EA0C0212F0803F50F804CBA3
:105A700051F8043BF2D04FEA0C604FEA1C2C01288D
:105A800028BFB0EB036F08BF1B0AF4D003F0FF037D
:105A90004FEA1060A0EB0300704700BF10F0030F47
:105AA0000AD010F8012B11F8013B012A28BF9A42B5
:105AB000F4D0A2EB030070474DF8045D4DF8044D9F
:105AC0004FF0010242EA022242EA024201F0030CD4
:105AD00021F0030150F8044B51F8045BBCF1020FB4
